:1000000002C100005BC500008AC50000B9C5000040
:10001000E8C5000017C6000046C6000075C600000F
:10002000A4C600001CC100001AC1000018C10000D5
:1000300016C1000014C1000012C1000010C1000070
:100040000EC1000057C400000AC1000008C1000032
:1000500006C1000004C1000002C10000B7C60000D4
:10006000FEC00000FCC00000FAC00000F8C00000A4
:10007000F6C00000F4C00000F2C00000F0C00000B4
:100080000CC40000ECC00000EAC00000E8C00000A2
:10009000E6C00000E4C00000E2C00000E0C00000D4
:1000A000DEC00000DCC00000CBC30000D8C00000F0
:1000B000D6C00000D4C00000D2C0000094C300002D
:1000C000CEC00000CCC00000CAC00000C8C0000004
:1000D000C6C00000C4C00000C2C00000C0C0000014
:1000E000BEC0000000002100240027002A002D00CF
:1000F0003000330001010000040107010A01000083
:100100002200250028002B002E00310034000201BF
:100110000000050108010B0100002000230026005B
:1001200029002C002F00320000010000030106010D
:10013000090105050505070508080808020202026D
:100140000A0A080804040404010101010101010173
:100150000303030303030303040707070C0C0C0C3E
:100160000C0C0C0C02020202060606060606060627
:100170000B0B0B0B0B0B0B0B0102102020080810B4
:100180002040102040800201020108040201010207
:1001900004081020408080402010080402018004E0
:1001A000020180402010080402010804020101023B
:1001B0000408102040800102040810204080000044
:1001C000090A02080B0C0D070603040100000000D9
:1001D000000000000000000000000000000000001F
:1001E0000000000000000000000011100F000000DF
:1001F00000000000000000000000000000000000FF
:1002000000000000590111241FBECFEFD1E2DEBF74
:10021000CDBF00E00CBF12E0A0E0B2E0EEE9F6E1F5
:1002200000E00BBF02C007900D92A832B107D9F7CA
:100230001BBE12E0A8E2B2E001C01D92A53EB107CC
:10024000E1F712E0C6E0D2E004C02297FE010E946E
:10025000490BC430D107C9F7B0D70C944D0BD0CEA1
:10026000F89480912D0290912E02019690932E0287
:1002700080932D0278940895FC0197FF03C040E01D
:1002800050E015C08E3291051CF04DE250E00FC0D9
:1002900065E070E00E94E30A9C018330910514F44C
:1002A000AF0103C0AF014B5F5F4F421B530BCA014D
:1002B000089588E292E06CD08FE292E04CE251E047
:1002C00060E070E044C38FE292E047D3882309F4F2
:1002D00043C0F89460912D0270912E0210922E026C
:1002E00010922D027894882777FD8095982F0E9490
:1002F000C90926E731E544E759E30E94550A9B0105
:10030000AC01B0D720E030E041E655E40E94550A48
:100310000E949609DC01CB0190932C0280932B0262
:10032000ABDF65E070E00E94E30AFB01EE0FFF1F08
:10033000EE0FFF1FE050FE4F60817181828193813B
:10034000F5D79B01AC0188E292E0B90177D064E176
:1003500070E080E090E090D56AE070E080E090E0AE
:100360008BC510922C0210922B0210922E0210922A
:100370002D0288E292E069E070E048EE53E020ED63
:1003800037E0C2D080E060E371E043E050E01AC3A0
:10039000FC0180913702803390F480838F5F8093DB
:1003A0003702815090E0FC01EE0FFF1FE80FF91FAC
:1003B000E85CFD4F88EB9BE09283818308958FEF8B
:1003C00080830895FC0120812033B8F5818199272D
:1003D00087FD909548E850E0481B590B440F551F86
:1003E000440F551F6417750784F08281992787FD94
:1003F000909548E552E0481B590B440F551F440F98
:10040000551F641775070CF4AB0142505040CA01E8
:10041000AA2797FDA095BA2F880F991FAA1FBB1F67
:100420004FB7F89430E0F901EE0FFF1FE20FF31F12
:10043000E85CFD4F928381834FBF0895AF92BF92D6
:10044000CF92DF92EF92FF920F931F93CF93DF93A0
:10045000EC019B0182E0603278070CF047C077FF27
:1004600003C020E030E005C0653B710514F024EBCB
:1004700030E000D00F92B901882777FD8095982F42
:100480002981332727FD3095E8E8AE2EB12CA21A3A
:10049000B30AAA0CBB1CAA0CBB1CCC24B7FCC0948E
:1004A000DC2CEA81FF27E7FDF09528E532E02E1BE2
:1004B0003F0B220F331F220F331F442737FD409578
:1004C000542FEDB7FEB7218332834383548320E05A
:1004D00030E040E050E004EBE02EF12C012D112D36
:1004E00079D69B010F900F900F900F90CE01B9011C
:1004F00069DFDF91CF911F910F91FF90EF90DF9017
:10050000CF90BF90AF900895CF92DF92EF92FF927D
:100510001F93CF93DF93EC01162F7A016901888135
:10052000803308F092C0862F61E061D5888190E029
:10053000FC01EE0FFF1FE80FF91FE85CFD4F1F7372
:100540008081807C812B808380E292E08E199F09DC
:1005500064E070E00E94E30A698380E699E08C1908
:100560009D0964E070E00E94E30A6A83A8818A2FF3
:100570006CE00E94D70A682F70E0AB01440F551F52
:10058000460F571F440F551F440F551F20E030E002
:10059000C901840F951FFC01EE0FFF1FE80FF91F23
:1005A000E85CFD4F808186FD44C02F5F3F4F2C30BB
:1005B000310571F753C01092800082E08093810072
:1005C0001092850010928400B19A80916F00826031
:1005D00080936F002EC06230710569F41092900014
:1005E00082E080939100109295001092940088BB55
:1005F000809371001EC06330710569F41092A000F1
:1006000082E08093A1001092A5001092A40089BB03
:10061000809372000EC0672B61F41092200182E07B
:100620008093210110922501109224018ABB8093AE
:1006300073008A2F90E0FC01EE0FFF1FE80FF91FF7
:10064000E85CFD4F8081806480838881DF91CF9159
:100650001F91FF90EF90DF90CF900895613071056A
:1006600009F0B9CFA8CFEF92FF920F931F93CF93CA
:10067000DF938B017A01EC01DC01A853BD4F8C9113
:1006800087FF04C0FB011182108236C0AE01440F07
:10069000551F4C0F5D1F440F551F440F551F2C91C4
:1006A000332727FD3095240F351F8091370290E0C6
:1006B000281739070CF58C91992787FD9095840FA1
:1006C000951FFC01EE0FFF1FE80FF91FE85CFD4FBF
:1006D000808186FF11C08C91992787FD9095840FAA
:1006E000951FFC01EE0FFF1FE80FF91FE85CFD4F9F
:1006F00080818F7360E02ED5DE01A853BD4F8C91B1
:100700008F5F8C93AE01440F551F4C0F5D1F440F3C
:10071000551F440F551F2C91332727FD3095240F6B
:10072000351F8091370290E0281739070CF04CC034
:100730008C918C300CF048C0F801208131818C9173
:10074000992787FD9095840F951FFC01EE0FFF1FE1
:10075000E80FF91FE85CFD4F81819281280F391F56
:10076000F701318320838C91992787FD9095840F21
:10077000951FFC01EE0FFF1FE80FF91FE85CFD4F0E
:10078000808186FF29C08C91992787FD9095840FE1
:10079000951FFC01EE0FFF1FE80FF91FE85CFD4FEE
:1007A00080818F7361E0D6D417C080E49CE904C0D7
:1007B000F801808191810496F70191838083C85369
:1007C000DD4F8FEF888308C0F80180819181049606
:1007D00080549C4950F3ECCFDF91CF911F910F9142
:1007E000FF90EF9008951F920F920FB60F920BB6E5
:1007F0000F9211242F933F934F935F936F937F93A7
:100800008F939F93AF93BF93EF93FF9380E090E01C
:1008100064E271E048E251E026DFFF91EF91BF9181
:10082000AF919F918F917F916F915F914F913F9188
:100830002F910F900BBE0F900FBE0F901F90189529
:100840001F920F920FB60F920BB60F9211242F9397
:100850003F934F935F936F937F938F939F93AF9348
:10086000BF93EF93FF9383E090E064EA70E048EA7F
:1008700050E0F9DEFF91EF91BF91AF919F918F9181
:100880007F916F915F914F913F912F910F900BBE90
:100890000F900FBE0F901F9018951F920F920FB6DA
:1008A0000F920BB60F9211242F933F934F935F93A8
:1008B0006F937F938F939F93AF93BF93EF93FF9328
:1008C00082E090E064E970E048E950E0CCDEFF911E
:1008D000EF91BF91AF919F918F917F916F915F91B8
:1008E0004F913F912F910F900BBE0F900FBE0F9025
:1008F0001F9018951F920F920FB60F920BB60F9282
:1009000011242F933F934F935F936F937F938F9314
:100910009F93AF93BF93EF93FF9381E090E064E8E0
:1009200070E048E850E09FDEFF91EF91BF91AF91FA
:100930009F918F917F916F915F914F913F912F91F7
:100940000F900BBE0F900FBE0F901F901895FC01DB
:1009500044835583668377830895EF92FF920F93C4
:100960001F93CF93DF93EC0179D2EC80FD800E8151
:100970001F81E114F1040105110529F468837983CD
:100980008A839B8317C0288139814A815B81621BDE
:10099000730B840B950B6E157F058007910710F480
:1009A00080E009C02E0D3F1D401F511F2883398351
:1009B0004A835B8381E0DF91CF911F910F91FF907C
:1009C000EF900895883008F078C0E82FF0E0EE0F3F
:1009D000FF1FE453FD4F718360838330D9F084306F
:1009E00030F4813009F444C0823060F439C085307D
:1009F00051F18530D8F0863009F446C0873009F0CF
:100A00005CC04FC0809169008C7F842B809369000B
:100A1000E89A089580916900440F551F440F551FAF
:100A2000837F842B80936900E99A089580916900FF
:100A300074E0440F551F7A95E1F78F7C842B8093E7
:100A40006900EA9A08958091690066E0440F551F95
:100A50006A95E1F78F73842B80936900EB9A089570
:100A600080916A008C7F842B80936A00EC9A0895B1
:100A700080916A00440F551F440F551F837F842BBC
:100A800080936A00ED9A089580916A0024E0440FF3
:100A9000551F2A95E1F78F7C842B80936A00EE9A8C
:100AA000089580916A0096E0440F551F9A95E1F7EA
:100AB0008F73842B80936A00EF9A08951F920F9290
:100AC0000FB60F920BB60F9211242F933F934F93B3
:100AD0005F936F937F938F939F93AF93BF93EF93A6
:100AE000FF938091D0029091D102892B29F0E0915F
:100AF000D002F091D1021995FF91EF91BF91AF9182
:100B00009F918F917F916F915F914F913F912F9125
:100B10000F900BBE0F900FBE0F901F9018951F9255
:100B20000F920FB60F920BB60F9211242F933F9393
:100B30004F935F936F937F938F939F93AF93BF93E5
:100B4000EF93FF938091D2029091D302892B29F0E9
:100B5000E091D202F091D3021995FF91EF91BF91EC
:100B6000AF919F918F917F916F915F914F913F9145
:100B70002F910F900BBE0F900FBE0F901F901895E6
:100B80001F920F920FB60F920BB60F9211242F9354
:100B90003F934F935F936F937F938F939F93AF9305
:100BA000BF93EF93FF938091D4029091D502892B4C
:100BB00029F0E091D402F091D5021995FF91EF91BF
:100BC000BF91AF919F918F917F916F915F914F9165
:100BD0003F912F910F900BBE0F900FBE0F901F9063
:100BE00018951F920F920FB60F920BB60F92112409
:100BF0002F933F934F935F936F937F938F939F9325
:100C0000AF93BF93EF93FF938091D6029091D70259
:100C1000892B29F0E091D602F091D7021995FF9126
:100C2000EF91BF91AF919F918F917F916F915F9164
:100C30004F913F912F910F900BBE0F900FBE0F90D1
:100C40001F9018951F920F920FB60F920BB60F922E
:100C500011242F933F934F935F936F937F938F93C1
:100C60009F93AF93BF93EF93FF938091CC029091AA
:100C7000CD02892B29F0E091CC02F091CD0219959B
:100C8000FF91EF91BF91AF919F918F917F916F9164
:100C90005F914F913F912F910F900BBE0F900FBE20
:100CA0000F901F9018951F920F920FB60F920BB6D0
:100CB0000F9211242F933F934F935F936F937F93E2
:100CC0008F939F93AF93BF93EF93FF938091CE0247
:100CD0009091CF02892B29F0E091CE02F091CF02C2
:100CE0001995FF91EF91BF91AF919F918F917F9156
:100CF0006F915F914F913F912F910F900BBE0F908D
:100D00000FBE0F901F9018951F920F920FB60F9263
:100D10000BB60F9211242F933F934F935F936F93D2
:100D20007F938F939F93AF93BF93EF93FF938091A4
:100D3000D8029091D902892B29F0E091D802F09144
:100D4000D9021995FF91EF91BF91AF919F918F912A
:100D50007F916F915F914F913F912F910F900BBEBB
:100D60000F900FBE0F901F9018951F920F920FB605
:100D70000F920BB60F9211242F933F934F935F93D3
:100D80006F937F938F939F93AF93BF93EF93FF9353
:100D90008091DA029091DB02892B29F0E091DA024E
:100DA000F091DB021995FF91EF91BF91AF919F9167
:100DB0008F917F916F915F914F913F912F910F9004
:100DC0000BBE0F900FBE0F901F9018951F920F92A1
:100DD0000FB60F9211242F933F938F939F93AF934E
:100DE000BF938091E0029091E102A091E202B09164
:100DF000E3023091E4020196A11DB11D232F2D5F66
:100E00002D3720F02D570196A11DB11D2093E4022E
:100E10008093E0029093E102A093E202B093E30298
:100E20008091DC029091DD02A091DE02B091DF02A0
:100E30000196A11DB11D8093DC029093DD02A09369
:100E4000DE02B093DF02BF91AF919F918F913F91EE
:100E50002F910F900FBE0F901F9018958FB7F89499
:100E60002091E0023091E1024091E2025091E302D0
:100E70008FBFB901CA0108959B01AC017FB7F894F7
:100E80008091DC029091DD02A091DE02B091DF0240
:100E900066B5A89B05C06F3F19F00196A11DB11D55
:100EA0007FBFBA2FA92F982F8827860F911DA11DCC
:100EB000B11D62E0880F991FAA1FBB1F6A95D1F769
:100EC000BC012DC0FFB7F8948091DC029091DD0247
:100ED000A091DE02B091DF02E6B5A89B05C0EF3F0E
:100EE00019F00196A11DB11DFFBFBA2FA92F982F90
:100EF00088278E0F911DA11DB11DE2E0880F991F5B
:100F0000AA1FBB1FEA95D1F7861B970B885E9340FB
:100F1000C8F2215030404040504068517C4F21156C
:100F200031054105510571F60895789484B58260C4
:100F300084BD84B5816084BD85B5826085BD85B57D
:100F4000816085BDEEE6F0E0808181608083E1E82C
:100F5000F0E0108280818260808380818160808364
:100F6000E0E8F0E0808181608083E1EBF0E0808167
:100F700084608083E0EBF0E0808181608083E1E940
:100F8000F0E0808182608083808181608083E0E9FD
:100F9000F0E0808181608083E1EAF0E0808182601E
:100FA0008083808181608083E0EAF0E080818160DD
:100FB0008083E1E2F1E080818260808380818160D2
:100FC0008083E0E2F1E0808181608083EAE7F0E005
:100FD0008081846080838081826080838081816061
:100FE00080838081806880831092C1000895CF93B0
:100FF000DF93482F50E0CA0188589E4FFC0134917E
:101000004E5C5E4FFA018491882369F190E0880F6D
:10101000991FFC01EC51FF4FA591B491FC01E250E6
:10102000FF4FC591D491662351F42FB7F8948C915A
:10103000932F909589238C93888189230BC06230EC
:1010400061F42FB7F8948C91932F909589238C930A
:101050008881832B88832FBF06C09FB7F8948C911B
:10106000832B8C939FBFDF91CF910895893009F432
:1010700049C08A30A0F4843051F1853040F4823088
:1010800079F1833000F5813009F063C026C08730E4
:1010900079F1883098F5863009F05BC025C08D3035
:1010A00009F442C08E3028F48B30B1F18C30C0F599
:1010B0002DC0803109F442C0813109F445C08F3020
:1010C00009F047C037C0809180008F7703C08091BE
:1010D00080008F7D80938000089584B58F7702C053
:1010E00084B58F7D84BD08958091B0008F7703C053
:1010F0008091B0008F7D8093B00008958091900022
:101100008F7707C0809190008F7D03C08091900001
:10111000877F8093900008958091A0008F7707C00B
:101120008091A0008F7D03C08091A000877F809375
:10113000A0000895809120018F7703C08091200145
:101140008F7D80932001089580912001877F809377
:1011500020010895FF920F931F93F62E482F50E021
:10116000CA0182549E4FFC012491CA0188589E4FA7
:10117000FC0114914E5C5E4FFA0104910023C1F012
:10118000222311F0822F72DFE02FF0E0EE0FFF1F1D
:10119000E250FF4FA591B4919FB7F894FF2021F43E
:1011A0008C911095812302C08C91812B8C939FBFD1
:1011B0001F910F91FF9008950895CF93DF93B5DEAF
:1011C000FBDFCFD8C0E0D0E07ED82097E9F30E94C3
:1011D0000000FACF2F923F924F925F926F927F92D0
:1011E0008F929F92AF92BF92CF92DF92EF92FF9237
:1011F0000F931F93DF93CF93CDB7DEB73B014C0125
:1012000019012A016E897F89888D998D6A197B0958
:101210008C099D09621A730A840A950AA401930134
:10122000A7D1E218F30804091509A8019701DED136
:101230002A0D3B1D4C1D5D1DB901CA01CF91DF91E7
:101240001F910F91FF90EF90DF90CF90BF90AF90E4
:101250009F908F907F906F905F904F903F902F90D6
:1012600008955058BB27AA270ED0E5C0D6D030F03D
:10127000DBD020F031F49F3F11F41EF4CBC00EF40C
:10128000E095E7FBC1C0E92FE7D080F3BA1762070A
:1012900073078407950718F071F49EF5FFC00EF4EC
:1012A000E0950B2EBA2FA02D0B01B90190010C0176
:1012B000CA01A0011124FF27591B99F0593F50F48E
:1012C000503E68F11A16F040A22F232F342F4427E6
:1012D000585FF3CF469537952795A795F0405395DE
:1012E000C9F77EF41F16BA0B620B730B840BBAF0AE
:1012F0009150A1F0FF0FBB1F661F771F881FC2F719
:101300000EC0BA0F621F731F841F48F4879577952C
:101310006795B795F7959E3F08F0B3CF9395880FE3
:1013200008F09927EE0F97958795089504D0689453
:10133000B111B5C0089598D088F09F5790F0B92F9B
:101340009927B751A0F0D1F0660F771F881F991F1A
:101350001AF0BA95C9F712C0B13081F09FD0B1E050
:1013600008959CC0672F782F8827B85F39F0B93F60
:10137000CCF3869577956795B395D9F73EF490951C
:101380008095709561957F4F8F4F9F4F0895E8949A
:1013900009C097FB3EF490958095709561957F4FBD
:1013A0008F4F9F4F9923A9F0F92F96E9BB2793956B
:1013B000F695879577956795B795F111F8CFFAF47B
:1013C000BB0F11F460FF1BC06F5F7F4F8F4F9F4FAC
:1013D00016C0882311F096E911C0772321F09EE80A
:1013E000872F762F05C0662371F096E8862F70E070
:1013F00060E02AF09A95660F771F881FDAF7880F4A
:101400009695879597F9089597F99F6780E870E01A
:1014100060E008959FEF80EC089500240A9416166A
:10142000170618060906089500240A9412161306D2
:10143000140605060895092E0394000C11F4882360
:1014400052F0BB0F40F4BF2B11F460FF04C06F5F7C
:101450007F4F8F4F9F4F089557FD9058440F551F52
:1014600059F05F3F71F04795880F97FB991F61F026
:101470009F3F79F087950895121613061406551F9D
:10148000F2CF4695F1DF08C0161617061806991F09
:10149000F1CF86957105610508940895E894BB27FE
:1014A00066277727CB0197F908950BD0C4CFB5DF16
:1014B00028F0BADF18F0952309F0A6CFABCF11249E
:1014C000EECFCADFA0F3959FD1F3950F50E0551FE3
:1014D000629FF001729FBB27F00DB11D639FAA2789
:1014E000F00DB11DAA1F649F6627B00DA11D661FD8
:1014F000829F2227B00DA11D621F739FB00DA11DF9
:10150000621F839FA00D611D221F749F3327A00DB2
:10151000611D231F849F600D211D822F762F6A2F4E
:1015200011249F5750408AF0E1F088234AF0EE0FD3
:10153000FF1FBB1F661F771F881F91505040A9F7E0
:101540009E3F510570F060CFAACF5F3FECF3983E0D
:10155000DCF3869577956795B795F795E7959F5F47
:10156000C1F7FE2B880F911D9695879597F90895E1
:10157000629FD001739FF001829FE00DF11D649F77
:10158000E00DF11D929FF00D839FF00D749FF00D03
:10159000659FF00D9927729FB00DE11DF91F639FA4
:1015A000B00DE11DF91FBD01CF0111240895991B54
:1015B00079E004C0991F961708F0961B881F7A954A
:1015C000C9F78095089597FB092E07260AD077FD65
:1015D00004D027D006D000201AF4709561957F4F73
:1015E0000895F6F7909581959F4F089597FB092EE2
:1015F00005260ED057FD04D028D00AD0001C38F4A0
:1016000050954095309521953F4F4F4F5F4F08952E
:10161000F6F790958095709561957F4F8F4F9F4F0E
:101620000895AA1BBB1B51E107C0AA1FBB1FA61729
:10163000B70710F0A61BB70B881F991F5A95A9F77B
:1016400080959095BC01CD010895A1E21A2EAA1BA8
:10165000BB1BFD010DC0AA1FBB1FEE1FFF1FA21762
:10166000B307E407F50720F0A21BB30BE40BF50B5F
:10167000661F771F881F991F1A9469F760957095E8
:10168000809590959B01AC01BD01CF010895EE0FAF
:0E169000FF1F0590F491E02D1994F894FFCF00
:10169E00000000008FC2753E3D0AD73E713D0A3FE5
:1016AE0014AEC73F0AD7434014AE97406666064154
:0816BE00E17A4C413D0A57415D
:00000001FF
